S01A00004761726261676542696E48617264776172652E737265631A
S11300000C9434000C9451000C9451000C94510045
S11300100C9451000C9451000C9451000C94510018
S11300200C9451000C9451000C9451000C94510008
S11300300C9451000C9451000C9451000C945100F8
S11300400C9451000C9451000C9451000C945100E8
S11300500C9451000C9451000C9451000C945100D8
S11300600C9451000C94510011241FBECFEFD8E022
S1130070DEBFCDBF11E0A0E0B1E0E0EBF0E002C0F4
S113008005900D92A630B107D9F721E0A6E0B1E0C2
S113009001C01D92A630B207E1F70E9453000C94F0
S11300A056000C9400008FEF87B9FFCFF894FFCF70
S10900B00000060120001F
S9030000FC
