:100000000C9434000C9451000C9451000C94510049
:100010000C9451000C9451000C9451000C9451001C
:100020000C9451000C9451000C9451000C9451000C
:100030000C9451000C9451000C9451000C945100FC
:100040000C9451000C9451000C9451000C945100EC
:100050000C9451000C9451000C9451000C945100DC
:100060000C9451000C94510011241FBECFEFD8E026
:10007000DEBFCDBF11E0A0E0B1E0EAEAF4E002C0EB
:1000800005900D92AA33B107D9F721E0AAE3B1E0B8
:1000900001C01D92AE33B207E1F70E94A9000C9493
:1000A00053020C9400002AE031E0FC0131832083EC
:1000B00008952AE031E0FC01318320830E9402018F
:1000C00008955B9A85ED8A95F1F700005B98089595
:1000D00098B1937C98B984FD429A85FD439A86FD38
:1000E000449A88230CF4459A0E9461000895CF93A6
:1000F000C82F0E9468008C2F8295807F0E94680024
:10010000CF9108955A9A0E94770008955A980E94B4
:10011000770008958AB18C608AB987B18C6387B9FA
:1001200083E30E94860082E30E94860088E20E94A8
:1001300086008CE00E94860086E00E94860081E0B6
:100140000E9486008FED9EE20197F1F700C000004B
:100150000895CF93DF93CDB7DEB7CC5ED3400FB613
:10016000F894DEBF0FBECDBF0E948A006EE071E042
:10017000CE0101960E94D20081E60E9482008FEF9C
:1001800084B985B90E9405018DE191E00E941D01AD
:100190002FEF83ED90E3215080409040E1F700C0C5
:1001A0000000F2CF1F93CF93DF932AE031E0FC01F0
:1001B00031832083E651FC4F11821082FB011081B4
:1001C0001123B1F0DC0112963196AC0147515C4F1E
:1001D000EC01C651DC4F1D939F01261B370B398361
:1001E00028831191112331F0A417B507A1F702C09C
:1001F00020E030E0FC01E20FF31F1282DF91CF918B
:100200001F9108950E94C40108951092C50087E6C9
:100210008093C400E1ECF0E0808188618083E2ECAF
:10022000F0E08081866080830895E0ECF0E09081CA
:1002300095FFFDCF8093C6000895CF93DF93EC0127
:100240008881882331F021960E94150189918111BE
:10025000FBCFDF91CF910895CF93DF93823091054B
:1002600010F482E090E0E0913C01F0913D0120E04B
:1002700030E0A0E0B0E0309739F14081518148177B
:100280005907B8F04817590771F482819381109784
:1002900029F013969C938E9312972CC090933D0156
:1002A00080933C0127C02115310531F042175307D7
:1002B00018F0A901DB0101C0EF019A01BD01DF01C6
:1002C0000280F381E02DD7CF21153105F9F0281BED
:1002D000390B2430310580F48A819B8161157105C9
:1002E00021F0FB019383828304C090933D018093AE
:1002F0003C01FE01329644C0FE01E20FF31F8193E0
:10030000919322503109398328833AC020913A01D0
:1003100030913B01232B41F42091020130910301E4
:1003200030933B0120933A0120910001309101016B
:100330002115310541F42DB73EB74091040150918C
:100340000501241B350BE0913A01F0913B01E217C6
:10035000F307A0F42E1B3F0B2817390778F0AC01E8
:100360004E5F5F4F2417350748F04E0F5F1F5093C5
:100370003B0140933A018193919302C0E0E0F0E0A9
:10038000CF01DF91CF910895CF93DF93009709F4C8
:1003900087C0FC01329713821282C0913C01D09138
:1003A0003D01209781F420813181280F391F8091F0
:1003B0003A0190913B018217930779F5F0933B0145
:1003C000E0933A016DC0DE0120E030E0AE17BF07D8
:1003D00050F412964D915C9113979D014115510572
:1003E00009F1DA01F3CFB383A28340815181840FF5
:1003F000951F8A179B0771F48D919C911197840F1B
:10040000951F02969183808312968D919C911397EC
:10041000938382832115310529F4F0933D01E09304
:100420003C013EC0D9011396FC93EE9312974D9177
:100430005D91A40FB51FEA17FB0779F480819181C4
:10044000840F951F0296D90111969C938E938281F9
:10045000938113969C938E931297E0E0F0E08A814B
:100460009B81009719F0FE01EC01F9CFCE010296B5
:1004700028813981820F931F20913A0130913B01ED
:100480002817390769F4309729F410923D0110922A
:100490003C0102C013821282D0933B01C0933A0107
:0A04A000DF91CF910895F894FFCF8B
:1004AA0000003E012000000000005300590048658A
:1004BA006C6C6F20576F726C642121210048656C47
:1004CA006C6F2E204920616D20796F7572206465EA
:0A04DA00627567676572210A000071
:00000001FF
