S01A00004761726261676542696E48617264776172652E737265631A
S11300000C94DF000C9407010C9407010C94070175
S11300100C9407010C9407010C9407010C9407013C
S11300200C9407010C9407010C94A1010C94070192
S11300300C9407010C9490010C9407010C94070193
S11300400C9407010C9407010C9407010C9407010C
S11300500C9407010C9407010C9407010C940701FC
S11300600C9407010C9407016A0B7B0B840B8A0B1D
S1130070930BB20BBB0BC40BCD0BD50BD50BD50B14
S1130080D50BD50BD50BD50BD50BD50BD50BD50B6C
S1130090D50BD50BD50BD50BD50BD50BD50BD50B5C
S11300A0D50BD50BD50BD50B6A0B720B7B0B840BC5
S11300B08A0B930B990BA10BAA0B6E616E00696EF0
S11300C0660000407A10F35A00A0724E180900101E
S11300D0A5D4E80000E87648170000E40B540200B9
S11300E000CA9A3B000000E1F505000080969800E4
S11300F0000040420F000000A0860100000010270D
S113010000000000E803000000006400000000009C
S11301100A00000000000100000000002C76D888CE
S1130120DC674F0823DFC1DFAE59E1B1B796E5E3E1
S1130130E453C63AE651997696E8E6C28426EB89FA
S11301408C9B62ED407C6FFCEFBC9C9F40F2BAA597
S11301506FA5F490055A2AF75C936B6CF9676DC12F
S11301601BFCE0E40D47FEF520E6B500D0ED902E33
S11301700300943577050080841E080000204E0A91
S1130180000000C80C333333330F986E12831141CF
S1130190EF8D2114893BE65516CFFEE6DB18D1849A
S11301A04B381BF77C1D901DA4BBE42420328472C1
S11301B05E228100C9F124ECA1E53D278B011124C5
S11301C01FBECFEFD8E0DEBFCDBF11E0A0E0B1E0AD
S11301D0ECE8F0E202C005900D92AC39B107D9F712
S11301E022E0ACE9B1E001C01D92A235B207E1F70B
S11301F011E0CEEBD1E004C02297FE010E94C50CB1
S1130200CC3BD107C9F70E94CC010C9444100C9448
S113021000002AE031E0FC013183208308952AE0C4
S113022031E0FC01318320830E9454020895CF926F
S1130230DF92EF92FF920F931F93CF93DF93CDB78B
S1130240DEB7C45FD3400FB6F894DEBF0FBECDBF98
S11302500F2EFDE9EF2EF1E0FF2EF02D0F2EF7EF1C
S1130260CF2EF1E0DF2EF02D45E050E06AE0CE0124
S113027009960E946E026B85662361F08E01045F0D
S11302801F4F8CE991E00E94160CF80161918F01D7
S11302906111F7CFF7018081811104C0F6018081DB
S11302A0882311F38CE991E00E946509162FE72E4B
S11302B0F82E092F8CE991E00E949109E62F272F4F
S11302C0412F5E2D6F2D702F49835A836B837C835E
S11302D04E2F522F682F792F4D835E836F8378873B
S11302E0212F3A814B815C816E2F7E818F8198858D
S11302F0CC50DC4F0FB6F894DEBF0FBECDBFDF91FC
S1130300CF911F910F91FF90EF90DF90CF900895C0
S11303100E94570208958CE991E00E94A207089573
S11303201F920F920FB60F9211248F9381E0809346
S11303304A02109249028F910F900FBE0F901F90A6
S113034018951F920F920FB60F9211248F939F93BB
S1130350EF93FF938091810086FF0BC0E1E8F0E00A
S1130360908180E489278083109285001092840014
S11303700AC0809184009091850090934C028093F0
S11303804B0210924902FF91EF919F918F910F9030
S11303900FBE0F901F901895CF93DF93CDB7DEB7A4
S11303A0CC56D1090FB6F894DEBF0FBECDBF0E9464
S11303B088010F2EFEE0EF2EF1E0FF2EF02D8E01CE
S11303C00F5F1F4F0E941701A6962FAFA697A796FF
S11303D03FAFA797A8964FAFA897A9965FAFA997E5
S11303E0AA966FAFAA97AB967FAFAB97AC968FAF39
S11303F0AC97AD969FAFAD979F93AC968FADAC97EE
S11304008F93AB968FADAB978F93AA968FADAA9728
S11304108F93A9968FADA9978F93A8968FADA89720
S11304208F93A7968FADA7978F93A6968FADA69718
S11304308F93FF92EF921F930F930E94C40FC801F2
S11304400E94BD022FEF83ED90E321508040904045
S1130450E1F700C000000FB6F894DEBF0FBECDBFB9
S1130460B1CF2AE031E0FC0131832083E651FC4F17
S113047011821082FC0112820895FC01E651FC4FA6
S113048020813181273E43E0340768F4A9014F5F9E
S11304905F4F51834083FC01E20FF31F6283FC0131
S11304A0E40FF51F128208950E94BA0D08958091F9
S11304B04D02811112C01092C50087E68093C400DA
S11304C0E1ECF0E0808188618083E2ECF0E08081FF
S11304D08660808381E080934D0208956F927F92BD
S11304E08F929F92AF92BF92CF92DF92EF92FF9240
S11304F00F931F93CF93DF934C01662E5A010E94F2
S1130500310200E010E0C0ECD0E00F2EF6ECCF2E6C
S1130510D12CF02D740126E1E21A2CEFF20A888125
S11305208823ECF7F6017080672DC4010E943D0218
S1130530761002C00F5F1F4FF70180819181883EC2
S1130540934019F00A151B0550F3C401DF91CF91B4
S11305501F910F91FF90EF90DF90CF90BF90AF90DD
S11305609F908F907F906F900895E0ECF0E09081E1
S113057095FFFDCF8093C6000895CF93DF93EC01E0
S11305808881882331F021960E94B50289918111D6
S1130590FBCFDF91CF9108955058BB27AA270ED0E7
S11305A01CC10DD130F012D120F031F49F3F11F471
S11305B01EF402C10EF4E095E7FBF8C0E92F1ED14A
S11305C080F3BA17620773078407950718F071F46C
S11305D09EF536C10EF4E0950B2EBA2FA02D0B011B
S11305E0B90190010C01CA01A0011124FF27591B74
S11305F099F0593F50F4503E68F11A16F040A22F7A
S1130600232F342F4427585FF3CF469537952795EA
S1130610A795F0405395C9F77EF41F16BA0B620BE9
S1130620730B840BBAF09150A1F0FF0FBB1F661F30
S1130630771F881FC2F70EC0BA0F621F731F841F73
S113064048F4879577956795B795F7959E3F08F099
S1130650B3CF9395880F08F09927EE0F9795879558
S113066008950CD0BAC0B2D040F0A9D030F021F433
S11306705F3F19F09BC05111E4C09EC0BFD098F3F6
S11306809923C9F35523B1F3951B550BBB27AA270F
S113069062177307840738F09F5F5F4F220F331F81
S11306A0441FAA1FA9F333D00E2E3AF0E0E830D04D
S11306B091505040E695001CCAF729D0FE2F27D050
S11306C0660F771F881FBB1F261737074807AB071E
S11306D0B0E809F0BB0B802DBF01FF2793585F4F93
S11306E02AF09E3F510568F061C0ABC05F3FECF358
S11306F0983EDCF3869577956795B795F7959F5F58
S1130700C9F7880F911D9695879597F90895E1E0AB
S1130710660F771F881FBB1F621773078407BA070A
S113072020F0621B730B840BBA0BEE1F88F7E09565
S11307300895E89409C097FB3EF4909580957095D0
S113074061957F4F8F4F9F4F9923A9F0F92F96E919
S1130750BB279395F695879577956795B795F1118E
S1130760F8CFFAF4BB0F11F460FF1BC06F5F7F4F2B
S11307708F4F9F4F16C0882311F096E911C077233D
S113078021F09EE8872F762F05C0662371F096E846
S1130790862F70E060E02AF09A95660F771F881F15
S11307A0DAF7880F9695879597F9089597F99F67D3
S11307B080E870E060E008959FEF80EC08950024E5
S11307C00A941616170618060906089500240A94B2
S11307D012161306140605060895092E0394000C38
S11307E011F4882352F0BB0F40F4BF2B11F460FFC7
S11307F004C06F5F7F4F8F4F9F4F089557FD9058F0
S1130800440F551F59F05F3F71F04795880F97FBD0
S1130810991F61F09F3F79F087950895121613068A
S11308201406551FF2CF4695F1DF08C016161706B9
S11308301806991FF1CF86957105610508940895EE
S1130840E894BB2766277727CB0197F90895A3E19E
S1130850B0E0EDE2F4E00C94DC0C7C011B016A01D5
S1130860FC0117821682838181FF66C3BE016F5F1C
S11308707F4F4B01F7019381F10193FD859193FF24
S113088081911F01882309F453C3853239F493FD00
S1130890859193FF81911F01853239F4B70190E06E
S11308A00E94920F56016501E5CF10E0512C20E023
S11308B02032A0F48B3269F030F4803259F0833264
S11308C069F420612CC08D3239F0803339F4216011
S11308D026C02260246023C0286021C027FD27C0D1
S11308E030ED380F3A3078F426FF06C0FAE01F9F47
S11308F0300D1124132F13C06AE0569E300D1124BD
S1130900532E20620CC08E3221F426FD11C32064C4
S113091006C08C3611F4206802C0883641F4F10117
S113092093FD859193FF81911F018111C1CF9BEBB1
S1130930980F933018F42061805E06C09BE9980FED
S1130940933008F0AAC12F7E26FF16E02F73722E73
S1130950853621F4F22FF0647F2E08C0863621F408
S1130960622F6068762E02C01111115077FE07C005
S11309701C3348F444244394410E27E00BC0183040
S113098030F4212F06C027E04CE3442E03C027E0B7
S113099017E0412C560174E0A70EB11CF6016081EA
S11309A0718182819381042DA4010E94700E6C01D7
S11309B0098100FF02C003FF06C071FC07C072FC7E
S11309C008C0612C08C03DE2632E05C02BE2622EF4
S11309D002C090E2692E802F8C7099F1662011F08C
S11309E084E001C083E0851510F0512C0BC0581A27
S11309F073FC08C0B70180E290E00E94920F5A9401
S1130A00C9F7F3CF662029F0B701862D90E00E9444
S1130A10920F03FD03C00EEB10E002C00AEB10E0DE
S1130A20F72DF0717F2EF8018491882309F476C2A2
S1130A3071108052B70190E00E94920F0F5F1F4F18
S1130A40F2CF77FE0FC04C0C04FF04C08A818133BF
S1130A5009F44A94141474F5F8E0F41578F588E070
S1130A60482E2CC076FC2AC0812F90E08C159D0561
S1130A709CF06CEFC6166FEFD60674F0772D706895
S1130A80772E0AC0E2E0F0E0EC0FFD1FE10FF11D4C
S1130A908081803319F411501111F4CF77FE0EC008
S1130AA044244394410E812F90E0C816D9062CF4B7
S1130AB01C1904C04424439401C010E077FE07C00D
S1130AC01C141D043CF496012F5F3F4F05C025E024
S1130AD030E002C021E030E0662011F02F5F3F4F8C
S1130AE0112331F0412F50E04F5F5F4F240F351F2A
S1130AF0452D50E02417350714F4521A01C0512C27
S1130B00872D897049F4552039F0B70180E290E0CF
S1130B100E94920F5A94F7CF662029F0B701862DD0
S1130B2090E00E94920F73FC09C0552039F0B70180
S1130B3080E390E00E94920F5A94F7CF77FE5FC053
S1130B409C2D8D2DD7FE02C090E080E0692E782E7A
S1130B5040E050E0C601841991099D878C87960175
S1130B6026193709280D391D812F90E0EE27FF271C
S1130B70E81BF90BFF87EE87FFEF6F167F0669F41A
S1130B80B7018EE290E02B8B3A8B488B598B0E94F5
S1130B90920F598948893A892B89C614D70454F08D
S1130BA06C857D85661577052CF4F901E40FF51F36
S1130BB0818101C080E371E0671A71084F5F5F4F64
S1130BC0EE85FF856E167F066CF0B70190E02B8BE7
S1130BD03A8B488B598B0E94920F2B893A8948890A
S1130BE05989CACF6C147D0439F49A81963318F468
S1130BF0953311F404FF81E3B70190E04BC08A817F
S1130C00813309F00F7EB70190E00E94920F111119
S1130C1005C074FE18C085E490E017C0B7018EE2E9
S1130C2090E00E94920F82E066246394680EF401BF
S1130C30E80FF11D8081B70190E00E94920F1150DE
S1130C4041F3862DF1CF85E690E0B7010E94920F23
S1130C50D7FC05C0C114D10439F404FF05C0D194F4
S1130C60C194D1088DE201C08BE2B70190E00E94EB
S1130C70920F80E36AE0C616D1042CF08F5FFAE08D
S1130C80CF1AD108F7CFB70190E00E94920FB701B5
S1130C90C601C0960E94920F41C1833631F083375A
S1130CA079F0833509F058C021C0560172E0A70ECF
S1130CB0B11CF6018081898301E010E0640114C055
S1130CC05601F2E0AF0EB11CF601C080D18026FFC0
S1130CD003C0612F70E002C06FEF7FEFC6012B8B62
S1130CE00E94720F8C012B892F7715C05601F2E0F8
S1130CF0AF0EB11CF601C080D18026FF03C0612F66
S1130D0070E002C06FEF7FEFC6012B8B0E94480F8B
S1130D108C012B892068722E23FD1AC0852D90E04A
S1130D2008171907A8F4B70180E290E00E94920F17
S1130D305A94F4CFF60177FC859177FE81916F0187
S1130D40B70190E00E94920F51105A94015011097A
S1130D500115110579F7E2C0843611F0893651F591
S1130D60560127FF09C0F4E0AF0EB11CF601608103
S1130D707181828193810AC0F2E0AF0EB11CF60149
S1130D8060817181882777FD8095982F022F0F76D7
S1130D9097FF08C090958095709561957F4F8F4F10
S1130DA09F4F00682AE030E0A4010E94E60FC82E9D
S1130DB0C8183EC0022F853721F40F7E2AE030E0A8
S1130DC01DC0097F8F3691F018F4883559F0B0C0F2
S1130DD0803719F0883711F0ABC0006104FF09C0F7
S1130DE0046007C024FF08C0066006C028E030E0A5
S1130DF005C020E130E002C020E132E0560107FFE7
S1130E0009C0F4E0AF0EB11CF601608171818281EA
S1130E10938108C0F2E0AF0EB11CF60160817181CC
S1130E2080E090E0A4010E94E60FC82EC8180F7756
S1130E3006FF0BC0202F2E7FC11650F404FF0AC0FA
S1130E4002FD08C0202F2E7E05C0DC2C202F03C0FD
S1130E50DC2C01C0D12E24FF0DC0FE01EC0DF11DD0
S1130E608081803311F4297E09C022FF06C0D39407
S1130E70D39404C0822F867809F0D39423FD13C041
S1130E8020FF06C01C2DD51418F4150D1D19D52CE2
S1130E90D51468F4B70180E290E02B8B0E94920F86
S1130EA0D3942B89F5CFD51410F45D1801C0512CBF
S1130EB024FF12C0B70180E390E02B8B0E94920FB5
S1130EC02B8922FF17C021FF03C088E590E002C0F0
S1130ED088E790E0B7010CC0822F867859F021FD95
S1130EE002C080E201C08BE227FD8DE2B70190E0F1
S1130EF00E94920FC11638F4B70180E390E00E947B
S1130F00920F1150F7CFCA94F401EC0DF11D8081BA
S1130F10B70190E00E94920FC110F5CF552009F45B
S1130F20C2CCB70180E290E00E94920F5A94F6CFAF
S1130F30F7018681978102C08FEF9FEF6396E2E10C
S1130F400C94F80CFC011082118213821282148218
S1130F5015821682178210861286118613861486CD
S1130F60158616861786118A108A128A138A148A9D
S1130F70158A168A108E178A118E128E138E148E6D
S1130F80158E12A213A214A215A216A217A210AAB9
S1130F9011AA12AA13AA14AA15AA16AE17AEDC0136
S1130FA0AC5BBF4F1D921D921D921C921397189615
S1130FB01C9211961C92119716961D921D921D92C9
S1130FC01C9219971E961C9211961C9211971696B4
S1130FD01D921D921D921C9219971E961C92119699
S1130FE01C92119716961D921D921D921C92199790
S1130FF01E961C9211961C92119716961D921D9284
S11310001D921C9219971E961C9211961C92509632
S113101082E08C9311961C9211961C9211961C924C
S1131020119611961C921E92129611961C921E9263
S113103012961D921D921D921C92139714961D9246
S11310401D921D921C92139714961D921D921D922F
S11310501C92139714961D921D921D921C92139725
S1131060EA57FF4F108208958FEB860F863020F4E5
S1131070862F90E0C79708958FE9860F863028F46D
S1131080862F90E0875591090895862F90E0C097A8
S11310900895FF920F931F93CF93DF93EC01FF24E6
S11310A0F39488818D3209F0F12CF1102196CE0150
S11310B00E94490E9B01AC01A4E6B0E00E94C90C59
S11310C04881242F30E0205331092A30310558F467
S11310D0FE013196EF014191242F30E02053310974
S11310E02A303105B8F34E3281F54981242F30E09E
S11310F0205331092A30310540F5242F30E02053A4
S113110031098901000F111F220F331F220F331FD2
S1131110220F331F020F131F222717FD2095322F92
S1131120600F711F821F931F0A81202F30E020530C
S113113031092A30310548F48901222717FD209509
S1131140322F600F711F821F931FFF2039F090957B
S11311508095709561957F4F8F4F9F4FDF91CF9111
S11311601F910F91FF9008954F925F927F928F92FB
S11311709F92AF92BF92CF92DF92EF92FF920F9322
S11311801F93CF93DF93EC012B010E94490E24E6B9
S113119030E040E050E00E94A10C49015A019B015B
S11311A0AC0160E876E988E990E00E94910C6B015B
S11311B07C01F201918280822881822F90E0C09785
S11311C00A9748F4FE013196EF012191822F90E0B5
S11311D0C0970A97C8F32E3289F51981812F90E0C0
S11311E0C0970A9758F522966894772477F806E909
S11311F0F8E9E0E00F2EFAE08F2E912CA12CB12C0F
S1131200F02D672D702F8F2F9E2FA50194010E9422
S1131210A10C722E032FF42FE52FA12FB0E0D0974D
S11312200E94D40CC60ED71EE81EF91E1991212F58
S113123030E0205331092A30310518F3D701C601B3
S1131240880F991FAA1FBB1F880F991FAA1FBB1FB6
S1131250C80ED91EEA1EFB1EC701B6016F5F7F4F81
S11312608F4F9F4F23E030E040E050E00E94A10CFC
S1131270F20122833383448355831682DF91CF9115
S11312801F910F91FF90EF90DF90CF90BF90AF90A0
S11312909F908F907F905F904F90089527E0FC017E
S11312A07096DC01129601900D922A95E1F727E0E1
S11312B0FC017796DC01199601900D922A95E1F7CD
S11312C021E0FC01218320830895CF92DF92EF92E5
S11312D0FF92CF93DF93EC0119826A817B8180E0D6
S11312E090E00E9499036B017C016C817D818E8169
S11312F09F810E94990328E23BE64EE65EE40E9449
S113130031039B01AC01C701B6010E94CD022885BF
S113131021119058DF91CF91FF90EF90DF90CF9003
S11313200895CF92DF92EF92FF92CF93DF93EC0177
S1131330198269857A8580E090E00E9499036B01A7
S11313407C016B857C858D859E850E94990328E2AE
S11313503BE64EE65EE40E9431039B01AC01C7010B
S1131360B6010E94CD022F8521119058DF91CF91B3
S1131370FF90EF90DF90CF900895CF93DF93EC012F
S1131380CB010E9449086E837F8388879987DF9108
S1131390CF910895CF93DF93EC01CB010E94490EC6
S11313A06E837F8388879987DF91CF910895CF9348
S11313B0DF93EC01CB010E9449086A877B878C8705
S11313C09D87DF91CF910895CF93DF93EC01CB01FB
S11313D00E94490E6A877B878C879D87DF91CF9116
S11313E00895CF93DF93EC01BC0140960E945C0FFB
S11313F081E08DA38CA3DF91CF91089540E150E06B
S11314000E94630F0895AF92BF92CF92DF92EF9242
S1131410FF921F93CF93DF93EC01FC01EB57FF4F37
S11314201081112309F4DDC0319660810E943408D3
S1131430F82EFE01E957FF4F6081CE010E94340867
S113144030E1F39E800D1124FE01EC57FF4F908193
S11314509813B7C0B59640815181628173814F5F03
S11314605F4F6F4F7F4F40835183628373837197C4
S11314702081222369F039964081518162817381F0
S11314804F5F5F4F6F4F7F4F4083518362837383FE
S1131490FE01EB56FF4F80818823C9F1813009F0AA
S11314A06DC088A599A5AAA5BBA58CA39DA3AEA331
S11314B0BFA331E03BA33AA38EA99FA9A8ADB9ADC0
S11314C08AAB9BABACABBDAB39AB38AB222309F4D5
S11314D055C0CE010E944E09FE01E85BFF4F80819A
S11314E09181A281B381349780839183A283B38352
S11314F021E02FAF2EAF389682859385A485B585DC
S113150086839783A087B1872183208337C08EA9E0
S11315109FA9A8ADB9AD8AAB9BABACABBDAB81E029
S113152089AB88AB222389F0CE010E944E09FE01CB
S1131530E65AFF4F82859385A485B5858683978374
S1131540A087B18781E081838083FE01E859FF4F42
S113155082859385A485B58586839783A087B18783
S113156021E0218320833E9682859385A485B585D9
S113157086839783A087B18721832083FE01E55664
S1131580FF4FE080F180E114F10409F444C1EF015C
S11315900CC0C7010E94F109D7019A96ED90FC9006
S11315A09B97E114F10409F436C1E881F98166A13D
S11315B077A1F70186A197A10E94530F892B49F3C4
S11315C02AC1CB55DF4F488159816A817B814F5FA6
S11315D05F4F6F4F7F4F488359836A837B8310E04B
S11315E01AC1FC01EA56FF4F8081811159C06E0176
S11315F0F6E8CF0ED11C6BE671E0C6010E94530FD2
S1131600892B31F481E0FE01EB56FF4F808311C03A
S113161061E771E0C6010E94530F892B29F4FE0192
S1131620EB56FF4F108205C082E0FE01EB56FF4FE0
S11316308083FE01E756FF4FE080F1803296F1820D
S1131640E082E114F10409F4E6C05F010CC0D701A3
S11316509A96ED90FC909B97F501F182E082E1145B
S1131660F10409F4D8C0B601D70196968D919C91E6
S113167097970E94530F992354F3E114F10409F44A
S1131680CAC0B601F70186A197A10E94530F18168C
S113169019060CF0C0C0C556DF4F19821882BBC0B2
S11316A0FE01EB56FF4F9081923009F47EC03F97C4
S11316B02081222309F479C030E2939FF0011124A0
S11316C0E82B3197E932F10508F06FC0EC5CFF4F6D
S11316D00C94C30CBE016A577F4FCE01C0960E9482
S11316E0BD0963C0FE01E856FF4F81E0213409F0D3
S11316F080E080835AC0BE01605F7F4FCE018A576D
S11317009F4F0E94B40851C081E0233509F080E066
S11317108E8B4BC0BE01695E7F4FCE018A579F4FAF
S11317200E94B40842C081E0273509F080E08D8F23
S11317303CC0BE016A577F4FCE01CE960E94D709A6
S113174034C0BE016A577F4FCE01845B9F4F0E9415
S1131750D7092BC0BE016A577F4FCE0182960E94E3
S1131760CA0923C0FE01E856FF4F81E0213308F483
S113177080E080831AC0BE016A577F4FCE0188592A
S11317809F4F0E94E40911C0BE016A577F4FCE01EA
S11317908A589F4F0E94D70908C0BE016A577F4FDD
S11317A0CE01865A9F4F0E94D709FE01E556FF4F8E
S11317B0E080F180E114F10471F16F015E0196E9BA
S11317C0A90EB11CCA57DF4F0FC02817390721F4DF
S11317D0BE01C7010E94FE09D7019A96ED90FC90C4
S11317E09B97E114F104B9F0D601ED91FC9166A147
S11317F077A1F70186A197A10E94530F892B59F471
S1131800D70198962D913C919997F501808190E0AC
S113181082179307D4F6812FDF91CF911F91FF9008
S1131820EF90DF90CF90BF90AF9008951F93CF9328
S1131830DF93EC01162FFC01E356FF4F40815181E9
S1131840628173814F5F5F4F6F4F7F4F408351833E
S113185062837383143299F130F41A3079F01D30B5
S113186009F03FC00BC01A3249F01C32D1F5FC011B
S1131870EC57FF4F90818CE289278083FE01E95663
S1131880FF4F80818F3050F4FE01E80FF11DEA57BD
S1131890FF4F1082CE010E94030A01C080E0FE01C6
S11318A0EA56FF4F90819F5F908331961082CB5709
S11318B0DF4F91E01A3209F090E098832EC0FC01CA
S11318C0E956FF4F108231971082729710827196F9
S11318D082E0808370971082C856DF4F188280E0C0
S11318E01CC0FE01E956FF4F80818E3048F491E020
S11318F0980F9083FE01E80FF11DEA57FF4F108304
S1131900FE01EB57FF4F8081811106C0CC57DF4F9A
S113191098811927188301C080E0DF91CF911F912E
S11319200895DB018F939F930E94C90CBF91AF91DF
S1131930A29F800D911DA39F900DB29F900D112425
S11319400895A1E21A2EAA1BBB1BFD010DC0AA1FFC
S1131950BB1FEE1FFF1FA217B307E407F50720F014
S1131960A21BB30BE40BF50B661F771F881F991F8F
S11319701A9469F760957095809590959B01AC01D8
S1131980BD01CF010895EE0FFF1F0590F491E02DE6
S113199009940E94130DA59F900DB49F900DA49FD0
S11319A0800D911D11240895B7FF0C94C90C0E9459
S11319B0C90C821B930B08952F923F924F925F9212
S11319C06F927F928F929F92AF92BF92CF92DF924B
S11319D0EF92FF920F931F93CF93DF93CDB7DEB7B0
S11319E0CA1BDB0B0FB6F894DEBF0FBECDBF099444
S11319F02A88398848885F846E847D848C849B849B
S1131A00AA84B984C884DF80EE80FD800C811B81A8
S1131A10AA81B981CE0FD11D0FB6F894DEBF0FBED7
S1131A20CDBFED010895A29FB001B39FC001A39F54
S1131A30700D811D1124911DB29F700D811D112403
S1131A40911D0895CF93DF938230910510F482E0C5
S1131A5090E0E0915002F091510220E030E0A0E0EB
S1131A60B0E0309739F14081518148175907B8F0F7
S1131A704817590771F482819381109729F01396BE
S1131A809C938E9312972CC0909351028093500292
S1131A9027C02115310531F04217530718F0A90169
S1131AA0DB0101C0EF019A01BD01DF010280F38176
S1131AB0E02DD7CF21153105F9F0281B390B24303F
S1131AC0310580F48A819B816115710521F0FB0148
S1131AD09383828304C09093510280935002FE0149
S1131AE0329644C0FE01E20FF31F8193919322507A
S1131AF03109398328833AC020914E0230914F0234
S1131B00232B41F4209102013091030130934F02C1
S1131B1020934E02209100013091010121153105DD
S1131B2041F42DB73EB74091040150910501241BA7
S1131B30350BE0914E02F0914F02E217F307A0F447
S1131B402E1B3F0B2817390778F0AC014E5F5F4F0F
S1131B502417350748F04E0F5F1F50934F024093F0
S1131B604E028193919302C0E0E0F0E0CF01DF9157
S1131B70CF910895CF93DF93009709F487C0FC01B8
S1131B80329713821282C0915002D0915102209751
S1131B9081F420813181280F391F80914E02909168
S1131BA04F028217930779F5F0934F02E0934E02A8
S1131BB06DC0DE0120E030E0AE17BF0750F412968E
S1131BC04D915C9113979D014115510509F1DA017D
S1131BD0F3CFB383A28340815181840F951F8A1769
S1131BE09B0771F48D919C911197840F951F029618
S1131BF09183808312968D919C9113979383828312
S1131C002115310529F4F0935102E09350023EC0AE
S1131C10D9011396FC93EE9312974D915D91A40F05
S1131C20B51FEA17FB0779F480819181840F951F12
S1131C300296D90111969C938E9382819381139677
S1131C409C938E931297E0E0F0E08A819B81009749
S1131C5019F0FE01EC01F9CFCE01029628813981F9
S1131C60820F931F20914E0230914F02281739079B
S1131C7069F4309729F4109251021092500202C074
S1131C8013821282D0934F02C0934E02DF91CF9100
S1131C9008951F93FC0199278827BC01E8941191AA
S1131CA01032E9F3193010F01E30C8F31B3251F032
S1131CB01D3249F4689406C00E947D0F610F711DA6
S1131CC0811D911D119110531A30B0F33EF490957B
S1131CD08095709561957F4F8F4F9F4F1F91089509
S1131CE0283008F027E03327DA01990F311D87FDEA
S1131CF0916000966105710539F432602E5F3D9361
S1131D0030E32A95E1F708959F3F30F0803871055C
S1131D10610509F03C5F3C5F3D93913008F08068B9
S1131D20911DDF93CF931F930F93FF92EF92192F7F
S1131D30987F9695E92F96959695E90FFF27E45E8F
S1131D40FE4F99273327EE24FF24A701E7010590CE
S1131D500894079428F4360FE71EF81E491F511DF6
S1131D60660F771F881F991F0694A1F705900794A3
S1131D7028F4E70EF81E491F561FC11D770F881F50
S1131D80991F661F0694A1F70590079428F4F80E8E
S1131D90491F561FC71FD11D880F991F661F771F24
S1131DA00694A1F70590079420F4490F561FC71F06
S1131DB0D81F990F661F771F881F0694A9F784916F
S1131DC01095177041F0D695C79557954795F79498
S1131DD0E7941A95C1F7E2ECF0E068941590159138
S1131DE035916591959105907FE27395E118F10A1B
S1131DF0430B560BC90BD009C0F7E10CF11E431F6E
S1131E00561FC91FD01D7EF4703311F48A95E6CF96
S1131E10E894015030F0080F0AF40027021708F480
S1131E20202F2395022F7A3328F079E37D932A9586
S1131E30E9F710C07D932A9589F6069497956795DE
S1131E40379517951794E118F10A430B560BC90BF4
S1131E50D00998F023957E9173957A3308F070E356
S1131E607C932013B8F77E9170617D9330F0839555
S1131E7071E37D9370E32A95E1F71124EF90FF90CD
S1131E800F911F91CF91DF91992787FD9095089528
S1131E90FC010590615070400110D8F78095909531
S1131EA08E0F9F1F0895FB01DC018D910190801915
S1131EB00110D9F3990B0895FB01DC0101900D92F7
S1131EC00020E1F70895FB01DC014150504048F047
S1131ED001900D920020C9F701C01D92415050405D
S1131EE0E0F70895FC016150704001900110D8F7AB
S1131EF0809590958E0F9F1F0895592F482F372F47
S1131F00262F660F771F881F991F660F771F881F5C
S1131F10991F620F731F841F951F660F771F881FF9
S1131F20991F08950F931F93CF93DF93182F092FB1
S1131F30EB018B8181FD03C08FEF9FEF20C082FFF7
S1131F4010C04E815F812C813D81421753077CF480
S1131F50E881F9819F012F5F3F4F398328831083E4
S1131F6006C0E885F985812F0995892B29F72E81EB
S1131F703F812F5F3F4F3F832E83812F902FDF912F
S1131F80CF911F910F910895AEE0B0E0EAECFFE02D
S1131F900C94EA0C0D891E8986E08C831A830983CC
S1131FA08FEF9FE79E838D83AE01475E5F4F6F89FE
S1131FB0788DCE0101960E942704EF81F885E00F09
S1131FC0F11F10822E96E4E00C94060DFA01AA2764
S1131FD0283051F1203181F1E8946F936E7F6E5F68
S1131FE07F4F8F4F9F4FAF4FB1E03ED0B4E03CD016
S1131FF0670F781F891F9A1FA11D680F791F8A1FF9
S1132000911DA11D6A0F711D811D911DA11D20D05F
S113201009F468943F912AE0269F11243019305D19
S11320203193DEF6CF010895462F4770405D41930A
S1132030B3E00FD0C9F7F6CF462F4F70405D4A3357
S113204018F0495D31FD4052419302D0A9F7EACF1F
S1132050B4E0A6959795879577956795BA95C9F74E
S113206000976105710508959B01AC010A2E069441
S11320705795479537952795BA95C9F7620F731FFA
S10F2080841F951FA01D0895F894FFCF45
S113208C0000520220000000000009010F014C4125
S113209C543A202566204C4E473A2025660A0024E3
S11320AC504D544B3331342C302C312C302C302CAF
S11320BC302C302C302C302C302C302C302C302C30
S11320CC302C302C302C302C302C302C302A323913
S11320DC0024504D544B3330302C31303030302CB4
S11320EC302C302C302C302A3243004750524D4384
S11320FC004750474741004E004E4E4500454E4563
S113210C0045534500535345005300535357005750
S10F211C535700574E57004E4E5700001A
S9030000FC
